{
  "_format": "hh-sol-artifact-1",
  "contractName": "Domains",
  "sourceName": "contracts/Domains.sol",
  "abi": [
    {
      "inputs": [
        {
          "internalType": "string",
          "name": "_tld",
          "type": "string"
        }
      ],
      "stateMutability": "payable",
      "type": "constructor"
    },
    {
      "anonymous": false,
      "inputs": [
        {
          "indexed": true,
          "internalType": "address",
          "name": "owner",
          "type": "address"
        },
        {
          "indexed": true,
          "internalType": "address",
          "name": "approved",
          "type": "address"
        },
        {
          "indexed": true,
          "internalType": "uint256",
          "name": "tokenId",
          "type": "uint256"
        }
      ],
      "name": "Approval",
      "type": "event"
    },
    {
      "anonymous": false,
      "inputs": [
        {
          "indexed": true,
          "internalType": "address",
          "name": "owner",
          "type": "address"
        },
        {
          "indexed": true,
          "internalType": "address",
          "name": "operator",
          "type": "address"
        },
        {
          "indexed": false,
          "internalType": "bool",
          "name": "approved",
          "type": "bool"
        }
      ],
      "name": "ApprovalForAll",
      "type": "event"
    },
    {
      "anonymous": false,
      "inputs": [
        {
          "indexed": true,
          "internalType": "address",
          "name": "from",
          "type": "address"
        },
        {
          "indexed": true,
          "internalType": "address",
          "name": "to",
          "type": "address"
        },
        {
          "indexed": true,
          "internalType": "uint256",
          "name": "tokenId",
          "type": "uint256"
        }
      ],
      "name": "Transfer",
      "type": "event"
    },
    {
      "inputs": [
        {
          "internalType": "address",
          "name": "to",
          "type": "address"
        },
        {
          "internalType": "uint256",
          "name": "tokenId",
          "type": "uint256"
        }
      ],
      "name": "approve",
      "outputs": [],
      "stateMutability": "nonpayable",
      "type": "function"
    },
    {
      "inputs": [
        {
          "internalType": "address",
          "name": "owner",
          "type": "address"
        }
      ],
      "name": "balanceOf",
      "outputs": [
        {
          "internalType": "uint256",
          "name": "",
          "type": "uint256"
        }
      ],
      "stateMutability": "view",
      "type": "function"
    },
    {
      "inputs": [
        {
          "internalType": "string",
          "name": "",
          "type": "string"
        }
      ],
      "name": "domains",
      "outputs": [
        {
          "internalType": "address",
          "name": "",
          "type": "address"
        }
      ],
      "stateMutability": "view",
      "type": "function"
    },
    {
      "inputs": [
        {
          "internalType": "string",
          "name": "name",
          "type": "string"
        }
      ],
      "name": "getAddress",
      "outputs": [
        {
          "internalType": "address",
          "name": "",
          "type": "address"
        }
      ],
      "stateMutability": "view",
      "type": "function"
    },
    {
      "inputs": [],
      "name": "getAllNames",
      "outputs": [
        {
          "internalType": "string[]",
          "name": "",
          "type": "string[]"
        }
      ],
      "stateMutability": "view",
      "type": "function"
    },
    {
      "inputs": [
        {
          "internalType": "uint256",
          "name": "tokenId",
          "type": "uint256"
        }
      ],
      "name": "getApproved",
      "outputs": [
        {
          "internalType": "address",
          "name": "",
          "type": "address"
        }
      ],
      "stateMutability": "view",
      "type": "function"
    },
    {
      "inputs": [
        {
          "internalType": "string",
          "name": "name",
          "type": "string"
        }
      ],
      "name": "getRecord",
      "outputs": [
        {
          "internalType": "string",
          "name": "",
          "type": "string"
        }
      ],
      "stateMutability": "view",
      "type": "function"
    },
    {
      "inputs": [
        {
          "internalType": "address",
          "name": "owner",
          "type": "address"
        },
        {
          "internalType": "address",
          "name": "operator",
          "type": "address"
        }
      ],
      "name": "isApprovedForAll",
      "outputs": [
        {
          "internalType": "bool",
          "name": "",
          "type": "bool"
        }
      ],
      "stateMutability": "view",
      "type": "function"
    },
    {
      "inputs": [],
      "name": "isOwner",
      "outputs": [
        {
          "internalType": "bool",
          "name": "",
          "type": "bool"
        }
      ],
      "stateMutability": "view",
      "type": "function"
    },
    {
      "inputs": [],
      "name": "name",
      "outputs": [
        {
          "internalType": "string",
          "name": "",
          "type": "string"
        }
      ],
      "stateMutability": "view",
      "type": "function"
    },
    {
      "inputs": [
        {
          "internalType": "uint256",
          "name": "",
          "type": "uint256"
        }
      ],
      "name": "names",
      "outputs": [
        {
          "internalType": "string",
          "name": "",
          "type": "string"
        }
      ],
      "stateMutability": "view",
      "type": "function"
    },
    {
      "inputs": [],
      "name": "owner",
      "outputs": [
        {
          "internalType": "address payable",
          "name": "",
          "type": "address"
        }
      ],
      "stateMutability": "view",
      "type": "function"
    },
    {
      "inputs": [
        {
          "internalType": "uint256",
          "name": "tokenId",
          "type": "uint256"
        }
      ],
      "name": "ownerOf",
      "outputs": [
        {
          "internalType": "address",
          "name": "",
          "type": "address"
        }
      ],
      "stateMutability": "view",
      "type": "function"
    },
    {
      "inputs": [
        {
          "internalType": "string",
          "name": "name",
          "type": "string"
        }
      ],
      "name": "price",
      "outputs": [
        {
          "internalType": "uint256",
          "name": "",
          "type": "uint256"
        }
      ],
      "stateMutability": "pure",
      "type": "function"
    },
    {
      "inputs": [
        {
          "internalType": "string",
          "name": "",
          "type": "string"
        }
      ],
      "name": "records",
      "outputs": [
        {
          "internalType": "string",
          "name": "",
          "type": "string"
        }
      ],
      "stateMutability": "view",
      "type": "function"
    },
    {
      "inputs": [
        {
          "internalType": "string",
          "name": "name",
          "type": "string"
        }
      ],
      "name": "register",
      "outputs": [],
      "stateMutability": "payable",
      "type": "function"
    },
    {
      "inputs": [
        {
          "internalType": "address",
          "name": "from",
          "type": "address"
        },
        {
          "internalType": "address",
          "name": "to",
          "type": "address"
        },
        {
          "internalType": "uint256",
          "name": "tokenId",
          "type": "uint256"
        }
      ],
      "name": "safeTransferFrom",
      "outputs": [],
      "stateMutability": "nonpayable",
      "type": "function"
    },
    {
      "inputs": [
        {
          "internalType": "address",
          "name": "from",
          "type": "address"
        },
        {
          "internalType": "address",
          "name": "to",
          "type": "address"
        },
        {
          "internalType": "uint256",
          "name": "tokenId",
          "type": "uint256"
        },
        {
          "internalType": "bytes",
          "name": "data",
          "type": "bytes"
        }
      ],
      "name": "safeTransferFrom",
      "outputs": [],
      "stateMutability": "nonpayable",
      "type": "function"
    },
    {
      "inputs": [
        {
          "internalType": "address",
          "name": "operator",
          "type": "address"
        },
        {
          "internalType": "bool",
          "name": "approved",
          "type": "bool"
        }
      ],
      "name": "setApprovalForAll",
      "outputs": [],
      "stateMutability": "nonpayable",
      "type": "function"
    },
    {
      "inputs": [
        {
          "internalType": "string",
          "name": "name",
          "type": "string"
        },
        {
          "internalType": "string",
          "name": "record",
          "type": "string"
        }
      ],
      "name": "setRecord",
      "outputs": [],
      "stateMutability": "nonpayable",
      "type": "function"
    },
    {
      "inputs": [
        {
          "internalType": "bytes4",
          "name": "interfaceId",
          "type": "bytes4"
        }
      ],
      "name": "supportsInterface",
      "outputs": [
        {
          "internalType": "bool",
          "name": "",
          "type": "bool"
        }
      ],
      "stateMutability": "view",
      "type": "function"
    },
    {
      "inputs": [],
      "name": "symbol",
      "outputs": [
        {
          "internalType": "string",
          "name": "",
          "type": "string"
        }
      ],
      "stateMutability": "view",
      "type": "function"
    },
    {
      "inputs": [],
      "name": "tld",
      "outputs": [
        {
          "internalType": "string",
          "name": "",
          "type": "string"
        }
      ],
      "stateMutability": "view",
      "type": "function"
    },
    {
      "inputs": [
        {
          "internalType": "uint256",
          "name": "tokenId",
          "type": "uint256"
        }
      ],
      "name": "tokenURI",
      "outputs": [
        {
          "internalType": "string",
          "name": "",
          "type": "string"
        }
      ],
      "stateMutability": "view",
      "type": "function"
    },
    {
      "inputs": [
        {
          "internalType": "address",
          "name": "from",
          "type": "address"
        },
        {
          "internalType": "address",
          "name": "to",
          "type": "address"
        },
        {
          "internalType": "uint256",
          "name": "tokenId",
          "type": "uint256"
        }
      ],
      "name": "transferFrom",
      "outputs": [],
      "stateMutability": "nonpayable",
      "type": "function"
    },
    {
      "inputs": [],
      "name": "withdraw",
      "outputs": [],
      "stateMutability": "nonpayable",
      "type": "function"
    }
  ],
  "bytecode": "0x6080604052604051806108a0016040528061086b815260200162004e7361086b91396009908051906020019062000038929190620002c8565b506040518060400160405280600d81526020017f3c2f746578743e3c2f7376673e00000000000000000000000000000000000000815250600a908051906020019062000086929190620002c8565b50604051620056de380380620056de8339818101604052810190620000ac919062000515565b6040518060400160405280601281526020017f4e696e6a61204e616d65205365727669636500000000000000000000000000008152506040518060400160405280600381526020017f4e4e530000000000000000000000000000000000000000000000000000000000815250816000908051906020019062000130929190620002c8565b50806001908051906020019062000149929190620002c8565b50505033600e60006101000a81548173ffffffffffffffffffffffffffffffffffffffff021916908373ffffffffffffffffffffffffffffffffffffffff1602179055508060089080519060200190620001a5929190620002c8565b50620001f26040518060400160405280601881526020017f2573206e616d652073657276696365206465706c6f796564000000000000000081525082620001f960201b6200199c1760201c565b5062000663565b6200029b828260405160240162000212929190620005c3565b6040516020818303038152906040527f4b5c4277000000000000000000000000000000000000000000000000000000007bffffffffffffffffffffffffffffffffffffffffffffffffffffffff19166020820180517bffffffffffffffffffffffffffffffffffffffffffffffffffffffff83818316178352505050506200029f60201b60201c565b5050565b60008151905060006a636f6e736f6c652e6c6f679050602083016000808483855afa5050505050565b828054620002d6906200062d565b90600052602060002090601f016020900481019282620002fa576000855562000346565b82601f106200031557805160ff191683800117855562000346565b8280016001018555821562000346579182015b828111156200034557825182559160200191906001019062000328565b5b50905062000355919062000359565b5090565b5b80821115620003745760008160009055506001016200035a565b5090565b6000604051905090565b600080fd5b600080fd5b600080fd5b600080fd5b6000601f19601f8301169050919050565b7f4e487b7100000000000000000000000000000000000000000000000000000000600052604160045260246000fd5b620003e18262000396565b810181811067ffffffffffffffff82111715620004035762000402620003a7565b5b80604052505050565b60006200041862000378565b9050620004268282620003d6565b919050565b600067ffffffffffffffff821115620004495762000448620003a7565b5b620004548262000396565b9050602081019050919050565b60005b838110156200048157808201518184015260208101905062000464565b8381111562000491576000848401525b50505050565b6000620004ae620004a8846200042b565b6200040c565b905082815260208101848484011115620004cd57620004cc62000391565b5b620004da84828562000461565b509392505050565b600082601f830112620004fa57620004f96200038c565b5b81516200050c84826020860162000497565b91505092915050565b6000602082840312156200052e576200052d62000382565b5b600082015167ffffffffffffffff8111156200054f576200054e62000387565b5b6200055d84828501620004e2565b91505092915050565b600081519050919050565b600082825260208201905092915050565b60006200058f8262000566565b6200059b818562000571565b9350620005ad81856020860162000461565b620005b88162000396565b840191505092915050565b60006040820190508181036000830152620005df818562000582565b90508181036020830152620005f5818462000582565b90509392505050565b7f4e487b7100000000000000000000000000000000000000000000000000000000600052602260045260246000fd5b600060028204905060018216806200064657607f821691505b602082108114156200065d576200065c620005fe565b5b50919050565b61480080620006736000396000f3fe6080604052600436106101815760003560e01c806370a08231116100d1578063bf40fac11161008a578063e985e9c511610064578063e985e9c5146105cc578063f2c298be14610609578063fb825e5f14610625578063fe2c61981461065057610181565b8063bf40fac114610529578063c1880a9814610566578063c87b56dd1461058f57610181565b806370a08231146104195780638da5cb5b146104565780638f32d59b1461048157806395d89b41146104ac578063a22cb465146104d7578063b88d4fde1461050057610181565b8063264492351161013e57806342842e0e1161011857806342842e0e146103395780634622ab0314610362578063541e771d1461039f5780636352211e146103dc57610181565b806326449235146102ba5780632d551432146102f75780633ccfd60b1461032257610181565b806301ffc9a71461018657806306fdde03146101c3578063081812fc146101ee578063095ea7b31461022b57806311dd88451461025457806323b872dd14610291575b600080fd5b34801561019257600080fd5b506101ad60048036038101906101a89190612e53565b61068d565b6040516101ba9190612e9b565b60405180910390f35b3480156101cf57600080fd5b506101d861076f565b6040516101e59190612f4f565b60405180910390f35b3480156101fa57600080fd5b5061021560048036038101906102109190612fa7565b610801565b6040516102229190613015565b60405180910390f35b34801561023757600080fd5b50610252600480360381019061024d919061305c565b610847565b005b34801561026057600080fd5b5061027b60048036038101906102769190613101565b61095f565b6040516102889190612f4f565b60405180910390f35b34801561029d57600080fd5b506102b860048036038101906102b3919061314e565b610a12565b005b3480156102c657600080fd5b506102e160048036038101906102dc91906132d1565b610a72565b6040516102ee9190613015565b60405180910390f35b34801561030357600080fd5b5061030c610abb565b6040516103199190612f4f565b60405180910390f35b34801561032e57600080fd5b50610337610b49565b005b34801561034557600080fd5b50610360600480360381019061035b919061314e565b610c0f565b005b34801561036e57600080fd5b5061038960048036038101906103849190612fa7565b610c2f565b6040516103969190612f4f565b60405180910390f35b3480156103ab57600080fd5b506103c660048036038101906103c191906132d1565b610ccf565b6040516103d39190612f4f565b60405180910390f35b3480156103e857600080fd5b5061040360048036038101906103fe9190612fa7565b610d85565b6040516104109190613015565b60405180910390f35b34801561042557600080fd5b50610440600480360381019061043b919061331a565b610e37565b60405161044d9190613356565b60405180910390f35b34801561046257600080fd5b5061046b610eef565b6040516104789190613392565b60405180910390f35b34801561048d57600080fd5b50610496610f15565b6040516104a39190612e9b565b60405180910390f35b3480156104b857600080fd5b506104c1610f6d565b6040516104ce9190612f4f565b60405180910390f35b3480156104e357600080fd5b506104fe60048036038101906104f991906133d9565b610fff565b005b34801561050c57600080fd5b50610527600480360381019061052291906134ba565b611015565b005b34801561053557600080fd5b50610550600480360381019061054b9190613101565b611077565b60405161055d9190613015565b60405180910390f35b34801561057257600080fd5b5061058d6004803603810190610588919061353d565b6110c2565b005b34801561059b57600080fd5b506105b660048036038101906105b19190612fa7565b611170565b6040516105c39190612f4f565b60405180910390f35b3480156105d857600080fd5b506105f360048036038101906105ee91906135be565b611283565b6040516106009190612e9b565b60405180910390f35b610623600480360381019061061e9190613101565b611317565b005b34801561063157600080fd5b5061063a61171b565b604051610647919061370a565b60405180910390f35b34801561065c57600080fd5b5061067760048036038101906106729190613101565b6118f9565b6040516106849190613356565b60405180910390f35b60007f80ac58cd000000000000000000000000000000000000000000000000000000007bffffffffffffffffffffffffffffffffffffffffffffffffffffffff1916827bffffffffffffffffffffffffffffffffffffffffffffffffffffffff1916148061075857507f5b5e139f000000000000000000000000000000000000000000000000000000007bffffffffffffffffffffffffffffffffffffffffffffffffffffffff1916827bffffffffffffffffffffffffffffffffffffffffffffffffffffffff1916145b80610768575061076782611a38565b5b9050919050565b60606000805461077e9061375b565b80601f01602080910402602001604051908101604052809291908181526020018280546107aa9061375b565b80156107f75780601f106107cc576101008083540402835291602001916107f7565b820191906000526020600020905b8154815290600101906020018083116107da57829003601f168201915b5050505050905090565b600061080c82611aa2565b6004600083815260200190815260200160002060009054906101000a900473ffffffffffffffffffffffffffffffffffffffff169050919050565b600061085282610d85565b90508073ffffffffffffffffffffffffffffffffffffffff168373ffffffffffffffffffffffffffffffffffffffff1614156108c3576040517f08c379a00000000000000000000000000000000000000000000000000000000081526004016108ba906137ff565b60405180910390fd5b8073ffffffffffffffffffffffffffffffffffffffff166108e2611aed565b73ffffffffffffffffffffffffffffffffffffffff16148061091157506109108161090b611aed565b611283565b5b610950576040517f08c379a000000000000000000000000000000000000000000000000000000000815260040161094790613891565b60405180910390fd5b61095a8383611af5565b505050565b6060600c83836040516109739291906138e1565b9081526020016040518091039020805461098c9061375b565b80601f01602080910402602001604051908101604052809291908181526020018280546109b89061375b565b8015610a055780601f106109da57610100808354040283529160200191610a05565b820191906000526020600020905b8154815290600101906020018083116109e857829003601f168201915b5050505050905092915050565b610a23610a1d611aed565b82611bae565b610a62576040517f08c379a0000000000000000000000000000000000000000000000000000000008152600401610a599061396c565b60405180910390fd5b610a6d838383611c43565b505050565b600b818051602081018201805184825260208301602085012081835280955050505050506000915054906101000a900473ffffffffffffffffffffffffffffffffffffffff1681565b60088054610ac89061375b565b80601f0160208091040260200160405190810160405280929190818152602001828054610af49061375b565b8015610b415780601f10610b1657610100808354040283529160200191610b41565b820191906000526020600020905b815481529060010190602001808311610b2457829003601f168201915b505050505081565b610b51610f15565b610b5a57600080fd5b600047905060003373ffffffffffffffffffffffffffffffffffffffff1682604051610b85906139bd565b60006040518083038185875af1925050503d8060008114610bc2576040519150601f19603f3d011682016040523d82523d6000602084013e610bc7565b606091505b5050905080610c0b576040517f08c379a0000000000000000000000000000000000000000000000000000000008152600401610c0290613a1e565b60405180910390fd5b5050565b610c2a83838360405180602001604052806000815250611015565b505050565b600d6020528060005260406000206000915090508054610c4e9061375b565b80601f0160208091040260200160405190810160405280929190818152602001828054610c7a9061375b565b8015610cc75780601f10610c9c57610100808354040283529160200191610cc7565b820191906000526020600020905b815481529060010190602001808311610caa57829003601f168201915b505050505081565b600c818051602081018201805184825260208301602085012081835280955050505050506000915090508054610d049061375b565b80601f0160208091040260200160405190810160405280929190818152602001828054610d309061375b565b8015610d7d5780601f10610d5257610100808354040283529160200191610d7d565b820191906000526020600020905b815481529060010190602001808311610d6057829003601f168201915b505050505081565b6000806002600084815260200190815260200160002060009054906101000a900473ffffffffffffffffffffffffffffffffffffffff169050600073ffffffffffffffffffffffffffffffffffffffff168173ffffffffffffffffffffffffffffffffffffffff161415610e2e576040517f08c379a0000000000000000000000000000000000000000000000000000000008152600401610e2590613a8a565b60405180910390fd5b80915050919050565b60008073ffffffffffffffffffffffffffffffffffffffff168273ffffffffffffffffffffffffffffffffffffffff161415610ea8576040517f08c379a0000000000000000000000000000000000000000000000000000000008152600401610e9f90613b1c565b60405180910390fd5b600360008373ffffffffffffffffffffffffffffffffffffffff1673ffffffffffffffffffffffffffffffffffffffff168152602001908152602001600020549050919050565b600e60009054906101000a900473ffffffffffffffffffffffffffffffffffffffff1681565b6000600e60009054906101000a900473ffffffffffffffffffffffffffffffffffffffff1673ffffffffffffffffffffffffffffffffffffffff163373ffffffffffffffffffffffffffffffffffffffff1614905090565b606060018054610f7c9061375b565b80601f0160208091040260200160405190810160405280929190818152602001828054610fa89061375b565b8015610ff55780601f10610fca57610100808354040283529160200191610ff5565b820191906000526020600020905b815481529060010190602001808311610fd857829003601f168201915b5050505050905090565b61101161100a611aed565b8383611eaa565b5050565b611026611020611aed565b83611bae565b611065576040517f08c379a000000000000000000000000000000000000000000000000000000000815260040161105c9061396c565b60405180910390fd5b61107184848484612017565b50505050565b6000600b838360405161108b9291906138e1565b908152602001604051809103902060009054906101000a900473ffffffffffffffffffffffffffffffffffffffff16905092915050565b3373ffffffffffffffffffffffffffffffffffffffff16600b85856040516110eb9291906138e1565b908152602001604051809103902060009054906101000a900473ffffffffffffffffffffffffffffffffffffffff1673ffffffffffffffffffffffffffffffffffffffff161461113a57600080fd5b8181600c868660405161114e9291906138e1565b90815260200160405180910390209190611169929190612cbe565b5050505050565b606061117b82611aa2565b600060066000848152602001908152602001600020805461119b9061375b565b80601f01602080910402602001604051908101604052809291908181526020018280546111c79061375b565b80156112145780601f106111e957610100808354040283529160200191611214565b820191906000526020600020905b8154815290600101906020018083116111f757829003601f168201915b505050505090506000611225612073565b905060008151141561123b57819250505061127e565b600082511115611270578082604051602001611258929190613b6d565b6040516020818303038152906040529250505061127e565b6112798461208a565b925050505b919050565b6000600560008473ffffffffffffffffffffffffffffffffffffffff1673ffffffffffffffffffffffffffffffffffffffff16815260200190815260200160002060008373ffffffffffffffffffffffffffffffffffffffff1673ffffffffffffffffffffffffffffffffffffffff16815260200190815260200160002060009054906101000a900460ff16905092915050565b600073ffffffffffffffffffffffffffffffffffffffff16600b83836040516113419291906138e1565b908152602001604051809103902060009054906101000a900473ffffffffffffffffffffffffffffffffffffffff1673ffffffffffffffffffffffffffffffffffffffff161461139057600080fd5b600061139c83836118f9565b9050803410156113e1576040517f08c379a00000000000000000000000000000000000000000000000000000000081526004016113d890613bdd565b60405180910390fd5b6000838360086040516020016113f993929190613cdd565b60405160208183030381529060405290506000600982600a60405160200161142393929190613d0e565b6040516020818303038152906040529050600061144060076120f2565b9050600061149187878080601f016020809104026020016040519081016040528093929190818152602001838380828437600081840152601f19601f82011690508083019250505050505050612100565b9050600061149e826122b5565b90506115926040518060600160405280603181526020016147216031913989898080601f016020809104026020016040519081016040528093929190818152602001838380828437600081840152601f19601f820116905080830192505050505050506008805461150e9061375b565b80601f016020809104026020016040519081016040528092919081815260200182805461153a9061375b565b80156115875780601f1061155c57610100808354040283529160200191611587565b820191906000526020600020905b81548152906001019060200180831161156a57829003601f168201915b505050505086612416565b60006115c8866115a1876124b8565b846040516020016115b493929190613ebb565b6040516020818303038152906040526124b8565b90506000816040516020016115dd9190613f64565b604051602081830303815290604052905061160f6040518060600160405280603981526020016146e860399139612650565b61164e6040518060400160405280600e81526020017f46696e616c20746f6b656e5552490000000000000000000000000000000000008152508261199c565b61166f60405180606001604052806039815260200161475260399139612650565b61167933866126e9565b6116838582612707565b33600b8b8b6040516116969291906138e1565b908152602001604051809103902060006101000a81548173ffffffffffffffffffffffffffffffffffffffff021916908373ffffffffffffffffffffffffffffffffffffffff1602179055508989600d60008881526020019081526020016000209190611704929190612cbe565b5061170f600761277b565b50505050505050505050565b606061175b6040518060400160405280601f81526020017f47657474696e6720616c6c206e616d65732066726f6d20636f6e747261637400815250612650565b600061176760076120f2565b67ffffffffffffffff8111156117805761177f6131a6565b5b6040519080825280602002602001820160405280156117b357816020015b606081526020019060019003908161179e5790505b50905060005b6117c360076120f2565b8110156118f157600d600082815260200190815260200160002080546117e89061375b565b80601f01602080910402602001604051908101604052809291908181526020018280546118149061375b565b80156118615780601f1061183657610100808354040283529160200191611861565b820191906000526020600020905b81548152906001019060200180831161184457829003601f168201915b505050505082828151811061187957611878613f86565b5b60200260200101819052506118de6040518060400160405280601781526020017f4e616d6520666f7220746f6b656e202564206973202573000000000000000000815250828484815181106118d1576118d0613f86565b5b6020026020010151612791565b80806118e990613fe4565b9150506117b9565b508091505090565b60008061194984848080601f016020809104026020016040519081016040528093929190818152602001838380828437600081840152601f19601f82011690508083019250505050505050612100565b90506000811161195857600080fd5b6003811415611971576611c37937e08000915050611996565b600481141561198a57660aa87bee538000915050611996565b66038d7ea4c680009150505b92915050565b611a3482826040516024016119b292919061402d565b6040516020818303038152906040527f4b5c4277000000000000000000000000000000000000000000000000000000007bffffffffffffffffffffffffffffffffffffffffffffffffffffffff19166020820180517bffffffffffffffffffffffffffffffffffffffffffffffffffffffff8381831617835250505050612830565b5050565b60007f01ffc9a7000000000000000000000000000000000000000000000000000000007bffffffffffffffffffffffffffffffffffffffffffffffffffffffff1916827bffffffffffffffffffffffffffffffffffffffffffffffffffffffff1916149050919050565b611aab81612859565b611aea576040517f08c379a0000000000000000000000000000000000000000000000000000000008152600401611ae190613a8a565b60405180910390fd5b50565b600033905090565b816004600083815260200190815260200160002060006101000a81548173ffffffffffffffffffffffffffffffffffffffff021916908373ffffffffffffffffffffffffffffffffffffffff160217905550808273ffffffffffffffffffffffffffffffffffffffff16611b6883610d85565b73ffffffffffffffffffffffffffffffffffffffff167f8c5be1e5ebec7d5bd14f71427d1e84f3dd0314c0f7b2291e5b200ac8c7c3b92560405160405180910390a45050565b600080611bba83610d85565b90508073ffffffffffffffffffffffffffffffffffffffff168473ffffffffffffffffffffffffffffffffffffffff161480611bfc5750611bfb8185611283565b5b80611c3a57508373ffffffffffffffffffffffffffffffffffffffff16611c2284610801565b73ffffffffffffffffffffffffffffffffffffffff16145b91505092915050565b8273ffffffffffffffffffffffffffffffffffffffff16611c6382610d85565b73ffffffffffffffffffffffffffffffffffffffff1614611cb9576040517f08c379a0000000000000000000000000000000000000000000000000000000008152600401611cb0906140d6565b60405180910390fd5b600073ffffffffffffffffffffffffffffffffffffffff168273ffffffffffffffffffffffffffffffffffffffff161415611d29576040517f08c379a0000000000000000000000000000000000000000000000000000000008152600401611d2090614168565b60405180910390fd5b611d348383836128c5565b611d3f600082611af5565b6001600360008573ffffffffffffffffffffffffffffffffffffffff1673ffffffffffffffffffffffffffffffffffffffff1681526020019081526020016000206000828254611d8f9190614188565b925050819055506001600360008473ffffffffffffffffffffffffffffffffffffffff1673ffffffffffffffffffffffffffffffffffffffff1681526020019081526020016000206000828254611de691906141bc565b92505081905550816002600083815260200190815260200160002060006101000a81548173ffffffffffffffffffffffffffffffffffffffff021916908373ffffffffffffffffffffffffffffffffffffffff160217905550808273ffffffffffffffffffffffffffffffffffffffff168473ffffffffffffffffffffffffffffffffffffffff167fddf252ad1be2c89b69c2b068fc378daa952ba7f163c4a11628f55a4df523b3ef60405160405180910390a4611ea58383836128ca565b505050565b8173ffffffffffffffffffffffffffffffffffffffff168373ffffffffffffffffffffffffffffffffffffffff161415611f19576040517f08c379a0000000000000000000000000000000000000000000000000000000008152600401611f109061425e565b60405180910390fd5b80600560008573ffffffffffffffffffffffffffffffffffffffff1673ffffffffffffffffffffffffffffffffffffffff16815260200190815260200160002060008473ffffffffffffffffffffffffffffffffffffffff1673ffffffffffffffffffffffffffffffffffffffff16815260200190815260200160002060006101000a81548160ff0219169083151502179055508173ffffffffffffffffffffffffffffffffffffffff168373ffffffffffffffffffffffffffffffffffffffff167f17307eab39ab6107e8899845ad3d59bd9653f200f220920489ca2b5937696c318360405161200a9190612e9b565b60405180910390a3505050565b612022848484611c43565b61202e848484846128cf565b61206d576040517f08c379a0000000000000000000000000000000000000000000000000000000008152600401612064906142f0565b60405180910390fd5b50505050565b606060405180602001604052806000815250905090565b606061209582611aa2565b600061209f612073565b905060008151116120bf57604051806020016040528060008152506120ea565b806120c9846122b5565b6040516020016120da929190613b6d565b6040516020818303038152906040525b915050919050565b600081600001549050919050565b60008060008084519050600092505b808210156122aa57600085838151811061212c5761212b613f86565b5b602001015160f81c60f81b9050608060f81b817effffffffffffffffffffffffffffffffffffffffffffffffffffffffffffff1916101561217b5760018361217491906141bc565b9250612296565b60e060f81b817effffffffffffffffffffffffffffffffffffffffffffffffffffffffffffff191610156121bd576002836121b691906141bc565b9250612295565b60f060f81b817effffffffffffffffffffffffffffffffffffffffffffffffffffffffffffff191610156121ff576003836121f891906141bc565b9250612294565b60f8801b817effffffffffffffffffffffffffffffffffffffffffffffffffffffffffffff191610156122405760048361223991906141bc565b9250612293565b60fc60f81b817effffffffffffffffffffffffffffffffffffffffffffffffffffffffffffff191610156122825760058361227b91906141bc565b9250612292565b60068361228f91906141bc565b92505b5b5b5b5b5082806122a290613fe4565b93505061210f565b829350505050919050565b606060008214156122fd576040518060400160405280600181526020017f30000000000000000000000000000000000000000000000000000000000000008152509050612411565b600082905060005b6000821461232f57808061231890613fe4565b915050600a82612328919061433f565b9150612305565b60008167ffffffffffffffff81111561234b5761234a6131a6565b5b6040519080825280601f01601f19166020018201604052801561237d5781602001600182028036833780820191505090505b5090505b6000851461240a576001826123969190614188565b9150600a856123a59190614370565b60306123b191906141bc565b60f81b8183815181106123c7576123c6613f86565b5b60200101907effffffffffffffffffffffffffffffffffffffffffffffffffffffffffffff1916908160001a905350600a85612403919061433f565b9450612381565b8093505050505b919050565b6124b28484848460405160240161243094939291906143a1565b6040516020818303038152906040527f8eafb02b000000000000000000000000000000000000000000000000000000007bffffffffffffffffffffffffffffffffffffffffffffffffffffffff19166020820180517bffffffffffffffffffffffffffffffffffffffffffffffffffffffff8381831617835250505050612830565b50505050565b606060008251905060008114156124e1576040518060200160405280600081525091505061264b565b600060036002836124f291906141bc565b6124fc919061433f565b600461250891906143fb565b9050600060208261251991906141bc565b67ffffffffffffffff811115612532576125316131a6565b5b6040519080825280601f01601f1916602001820160405280156125645781602001600182028036833780820191505090505b509050600060405180606001604052806040815260200161478b604091399050600181016020830160005b868110156126085760038101905062ffffff818a015116603f8160121c168401518060081b905060ff603f83600c1c1686015116810190508060081b905060ff603f8360061c1686015116810190508060081b905060ff603f831686015116810190508060e01b9050808452600484019350505061258f565b50600386066001811461262257600281146126325761263d565b613d3d60f01b600283035261263d565b603d60f81b60018303525b508484525050819450505050505b919050565b6126e6816040516024016126649190612f4f565b6040516020818303038152906040527f41304fac000000000000000000000000000000000000000000000000000000007bffffffffffffffffffffffffffffffffffffffffffffffffffffffff19166020820180517bffffffffffffffffffffffffffffffffffffffffffffffffffffffff8381831617835250505050612830565b50565b612703828260405180602001604052806000815250612a66565b5050565b61271082612859565b61274f576040517f08c379a0000000000000000000000000000000000000000000000000000000008152600401612746906144c7565b60405180910390fd5b80600660008481526020019081526020016000209080519060200190612776929190612d44565b505050565b6001816000016000828254019250508190555050565b61282b8383836040516024016127a9939291906144e7565b6040516020818303038152906040527f5970e089000000000000000000000000000000000000000000000000000000007bffffffffffffffffffffffffffffffffffffffffffffffffffffffff19166020820180517bffffffffffffffffffffffffffffffffffffffffffffffffffffffff8381831617835250505050612830565b505050565b60008151905060006a636f6e736f6c652e6c6f679050602083016000808483855afa5050505050565b60008073ffffffffffffffffffffffffffffffffffffffff166002600084815260200190815260200160002060009054906101000a900473ffffffffffffffffffffffffffffffffffffffff1673ffffffffffffffffffffffffffffffffffffffff1614159050919050565b505050565b505050565b60006128f08473ffffffffffffffffffffffffffffffffffffffff16612ac1565b15612a59578373ffffffffffffffffffffffffffffffffffffffff1663150b7a02612919611aed565b8786866040518563ffffffff1660e01b815260040161293b9493929190614581565b602060405180830381600087803b15801561295557600080fd5b505af192505050801561298657506040513d601f19601f8201168201806040525081019061298391906145e2565b60015b612a09573d80600081146129b6576040519150601f19603f3d011682016040523d82523d6000602084013e6129bb565b606091505b50600081511415612a01576040517f08c379a00000000000000000000000000000000000000000000000000000000081526004016129f8906142f0565b60405180910390fd5b805181602001fd5b63150b7a0260e01b7bffffffffffffffffffffffffffffffffffffffffffffffffffffffff1916817bffffffffffffffffffffffffffffffffffffffffffffffffffffffff191614915050612a5e565b600190505b949350505050565b612a708383612ae4565b612a7d60008484846128cf565b612abc576040517f08c379a0000000000000000000000000000000000000000000000000000000008152600401612ab3906142f0565b60405180910390fd5b505050565b6000808273ffffffffffffffffffffffffffffffffffffffff163b119050919050565b600073ffffffffffffffffffffffffffffffffffffffff168273ffffffffffffffffffffffffffffffffffffffff161415612b54576040517f08c379a0000000000000000000000000000000000000000000000000000000008152600401612b4b9061465b565b60405180910390fd5b612b5d81612859565b15612b9d576040517f08c379a0000000000000000000000000000000000000000000000000000000008152600401612b94906146c7565b60405180910390fd5b612ba9600083836128c5565b6001600360008473ffffffffffffffffffffffffffffffffffffffff1673ffffffffffffffffffffffffffffffffffffffff1681526020019081526020016000206000828254612bf991906141bc565b92505081905550816002600083815260200190815260200160002060006101000a81548173ffffffffffffffffffffffffffffffffffffffff021916908373ffffffffffffffffffffffffffffffffffffffff160217905550808273ffffffffffffffffffffffffffffffffffffffff16600073ffffffffffffffffffffffffffffffffffffffff167fddf252ad1be2c89b69c2b068fc378daa952ba7f163c4a11628f55a4df523b3ef60405160405180910390a4612cba600083836128ca565b5050565b828054612cca9061375b565b90600052602060002090601f016020900481019282612cec5760008555612d33565b82601f10612d0557803560ff1916838001178555612d33565b82800160010185558215612d33579182015b82811115612d32578235825591602001919060010190612d17565b5b509050612d409190612dca565b5090565b828054612d509061375b565b90600052602060002090601f016020900481019282612d725760008555612db9565b82601f10612d8b57805160ff1916838001178555612db9565b82800160010185558215612db9579182015b82811115612db8578251825591602001919060010190612d9d565b5b509050612dc69190612dca565b5090565b5b80821115612de3576000816000905550600101612dcb565b5090565b6000604051905090565b600080fd5b600080fd5b60007fffffffff0000000000000000000000000000000000000000000000000000000082169050919050565b612e3081612dfb565b8114612e3b57600080fd5b50565b600081359050612e4d81612e27565b92915050565b600060208284031215612e6957612e68612df1565b5b6000612e7784828501612e3e565b91505092915050565b60008115159050919050565b612e9581612e80565b82525050565b6000602082019050612eb06000830184612e8c565b92915050565b600081519050919050565b600082825260208201905092915050565b60005b83811015612ef0578082015181840152602081019050612ed5565b83811115612eff576000848401525b50505050565b6000601f19601f8301169050919050565b6000612f2182612eb6565b612f2b8185612ec1565b9350612f3b818560208601612ed2565b612f4481612f05565b840191505092915050565b60006020820190508181036000830152612f698184612f16565b905092915050565b6000819050919050565b612f8481612f71565b8114612f8f57600080fd5b50565b600081359050612fa181612f7b565b92915050565b600060208284031215612fbd57612fbc612df1565b5b6000612fcb84828501612f92565b91505092915050565b600073ffffffffffffffffffffffffffffffffffffffff82169050919050565b6000612fff82612fd4565b9050919050565b61300f81612ff4565b82525050565b600060208201905061302a6000830184613006565b92915050565b61303981612ff4565b811461304457600080fd5b50565b60008135905061305681613030565b92915050565b6000806040838503121561307357613072612df1565b5b600061308185828601613047565b925050602061309285828601612f92565b9150509250929050565b600080fd5b600080fd5b600080fd5b60008083601f8401126130c1576130c061309c565b5b8235905067ffffffffffffffff8111156130de576130dd6130a1565b5b6020830191508360018202830111156130fa576130f96130a6565b5b9250929050565b6000806020838503121561311857613117612df1565b5b600083013567ffffffffffffffff81111561313657613135612df6565b5b613142858286016130ab565b92509250509250929050565b60008060006060848603121561316757613166612df1565b5b600061317586828701613047565b935050602061318686828701613047565b925050604061319786828701612f92565b9150509250925092565b600080fd5b7f4e487b7100000000000000000000000000000000000000000000000000000000600052604160045260246000fd5b6131de82612f05565b810181811067ffffffffffffffff821117156131fd576131fc6131a6565b5b80604052505050565b6000613210612de7565b905061321c82826131d5565b919050565b600067ffffffffffffffff82111561323c5761323b6131a6565b5b61324582612f05565b9050602081019050919050565b82818337600083830152505050565b600061327461326f84613221565b613206565b9050828152602081018484840111156132905761328f6131a1565b5b61329b848285613252565b509392505050565b600082601f8301126132b8576132b761309c565b5b81356132c8848260208601613261565b91505092915050565b6000602082840312156132e7576132e6612df1565b5b600082013567ffffffffffffffff81111561330557613304612df6565b5b613311848285016132a3565b91505092915050565b6000602082840312156133305761332f612df1565b5b600061333e84828501613047565b91505092915050565b61335081612f71565b82525050565b600060208201905061336b6000830184613347565b92915050565b600061337c82612fd4565b9050919050565b61338c81613371565b82525050565b60006020820190506133a76000830184613383565b92915050565b6133b681612e80565b81146133c157600080fd5b50565b6000813590506133d3816133ad565b92915050565b600080604083850312156133f0576133ef612df1565b5b60006133fe85828601613047565b925050602061340f858286016133c4565b9150509250929050565b600067ffffffffffffffff821115613434576134336131a6565b5b61343d82612f05565b9050602081019050919050565b600061345d61345884613419565b613206565b905082815260208101848484011115613479576134786131a1565b5b613484848285613252565b509392505050565b600082601f8301126134a1576134a061309c565b5b81356134b184826020860161344a565b91505092915050565b600080600080608085870312156134d4576134d3612df1565b5b60006134e287828801613047565b94505060206134f387828801613047565b935050604061350487828801612f92565b925050606085013567ffffffffffffffff81111561352557613524612df6565b5b6135318782880161348c565b91505092959194509250565b6000806000806040858703121561355757613556612df1565b5b600085013567ffffffffffffffff81111561357557613574612df6565b5b613581878288016130ab565b9450945050602085013567ffffffffffffffff8111156135a4576135a3612df6565b5b6135b0878288016130ab565b925092505092959194509250565b600080604083850312156135d5576135d4612df1565b5b60006135e385828601613047565b92505060206135f485828601613047565b9150509250929050565b600081519050919050565b600082825260208201905092915050565b6000819050602082019050919050565b600082825260208201905092915050565b600061364682612eb6565b613650818561362a565b9350613660818560208601612ed2565b61366981612f05565b840191505092915050565b6000613680838361363b565b905092915050565b6000602082019050919050565b60006136a0826135fe565b6136aa8185613609565b9350836020820285016136bc8561361a565b8060005b858110156136f857848403895281516136d98582613674565b94506136e483613688565b925060208a019950506001810190506136c0565b50829750879550505050505092915050565b600060208201905081810360008301526137248184613695565b905092915050565b7f4e487b7100000000000000000000000000000000000000000000000000000000600052602260045260246000fd5b6000600282049050600182168061377357607f821691505b602082108114156137875761378661372c565b5b50919050565b7f4552433732313a20617070726f76616c20746f2063757272656e74206f776e6560008201527f7200000000000000000000000000000000000000000000000000000000000000602082015250565b60006137e9602183612ec1565b91506137f48261378d565b604082019050919050565b60006020820190508181036000830152613818816137dc565b9050919050565b7f4552433732313a20617070726f76652063616c6c6572206973206e6f7420746f60008201527f6b656e206f776e6572206e6f7220617070726f76656420666f7220616c6c0000602082015250565b600061387b603e83612ec1565b91506138868261381f565b604082019050919050565b600060208201905081810360008301526138aa8161386e565b9050919050565b600081905092915050565b60006138c883856138b1565b93506138d5838584613252565b82840190509392505050565b60006138ee8284866138bc565b91508190509392505050565b7f4552433732313a2063616c6c6572206973206e6f7420746f6b656e206f776e6560008201527f72206e6f7220617070726f766564000000000000000000000000000000000000602082015250565b6000613956602e83612ec1565b9150613961826138fa565b604082019050919050565b6000602082019050818103600083015261398581613949565b9050919050565b600081905092915050565b50565b60006139a760008361398c565b91506139b282613997565b600082019050919050565b60006139c88261399a565b9150819050919050565b7f4661696c656420746f207769746864726177204d617469630000000000000000600082015250565b6000613a08601883612ec1565b9150613a13826139d2565b602082019050919050565b60006020820190508181036000830152613a37816139fb565b9050919050565b7f4552433732313a20696e76616c696420746f6b656e2049440000000000000000600082015250565b6000613a74601883612ec1565b9150613a7f82613a3e565b602082019050919050565b60006020820190508181036000830152613aa381613a67565b9050919050565b7f4552433732313a2061646472657373207a65726f206973206e6f74206120766160008201527f6c6964206f776e65720000000000000000000000000000000000000000000000602082015250565b6000613b06602983612ec1565b9150613b1182613aaa565b604082019050919050565b60006020820190508181036000830152613b3581613af9565b9050919050565b6000613b4782612eb6565b613b5181856138b1565b9350613b61818560208601612ed2565b80840191505092915050565b6000613b798285613b3c565b9150613b858284613b3c565b91508190509392505050565b7f4e6f7420656e6f756768204d6174696320706169640000000000000000000000600082015250565b6000613bc7601583612ec1565b9150613bd282613b91565b602082019050919050565b60006020820190508181036000830152613bf681613bba565b9050919050565b7f2e00000000000000000000000000000000000000000000000000000000000000600082015250565b6000613c336001836138b1565b9150613c3e82613bfd565b600182019050919050565b60008190508160005260206000209050919050565b60008154613c6b8161375b565b613c7581866138b1565b94506001821660008114613c905760018114613ca157613cd4565b60ff19831686528186019350613cd4565b613caa85613c49565b60005b83811015613ccc57815481890152600182019150602081019050613cad565b838801955050505b50505092915050565b6000613cea8285876138bc565b9150613cf582613c26565b9150613d018284613c5e565b9150819050949350505050565b6000613d1a8286613c5e565b9150613d268285613b3c565b9150613d328284613c5e565b9150819050949350505050565b7f7b226e616d65223a202200000000000000000000000000000000000000000000600082015250565b6000613d75600a836138b1565b9150613d8082613d3f565b600a82019050919050565b7f222c20226465736372697074696f6e223a20224120646f6d61696e206f6e207460008201527f6865204e696e6a61206e616d652073657276696365222c2022696d616765223a60208201527f2022646174613a696d6167652f7376672b786d6c3b6261736536342c00000000604082015250565b6000613e0d605c836138b1565b9150613e1882613d8b565b605c82019050919050565b7f222c226c656e677468223a220000000000000000000000000000000000000000600082015250565b6000613e59600c836138b1565b9150613e6482613e23565b600c82019050919050565b7f227d000000000000000000000000000000000000000000000000000000000000600082015250565b6000613ea56002836138b1565b9150613eb082613e6f565b600282019050919050565b6000613ec682613d68565b9150613ed28286613b3c565b9150613edd82613e00565b9150613ee98285613b3c565b9150613ef482613e4c565b9150613f008284613b3c565b9150613f0b82613e98565b9150819050949350505050565b7f646174613a6170706c69636174696f6e2f6a736f6e3b6261736536342c000000600082015250565b6000613f4e601d836138b1565b9150613f5982613f18565b601d82019050919050565b6000613f6f82613f41565b9150613f7b8284613b3c565b915081905092915050565b7f4e487b7100000000000000000000000000000000000000000000000000000000600052603260045260246000fd5b7f4e487b7100000000000000000000000000000000000000000000000000000000600052601160045260246000fd5b6000613fef82612f71565b91507fffffffffffffffffffffffffffffffffffffffffffffffffffffffffffffffff82141561402257614021613fb5565b5b600182019050919050565b600060408201905081810360008301526140478185612f16565b9050818103602083015261405b8184612f16565b90509392505050565b7f4552433732313a207472616e736665722066726f6d20696e636f72726563742060008201527f6f776e6572000000000000000000000000000000000000000000000000000000602082015250565b60006140c0602583612ec1565b91506140cb82614064565b604082019050919050565b600060208201905081810360008301526140ef816140b3565b9050919050565b7f4552433732313a207472616e7366657220746f20746865207a65726f2061646460008201527f7265737300000000000000000000000000000000000000000000000000000000602082015250565b6000614152602483612ec1565b915061415d826140f6565b604082019050919050565b6000602082019050818103600083015261418181614145565b9050919050565b600061419382612f71565b915061419e83612f71565b9250828210156141b1576141b0613fb5565b5b828203905092915050565b60006141c782612f71565b91506141d283612f71565b9250827fffffffffffffffffffffffffffffffffffffffffffffffffffffffffffffffff0382111561420757614206613fb5565b5b828201905092915050565b7f4552433732313a20617070726f766520746f2063616c6c657200000000000000600082015250565b6000614248601983612ec1565b915061425382614212565b602082019050919050565b600060208201905081810360008301526142778161423b565b9050919050565b7f4552433732313a207472616e7366657220746f206e6f6e20455243373231526560008201527f63656976657220696d706c656d656e7465720000000000000000000000000000602082015250565b60006142da603283612ec1565b91506142e58261427e565b604082019050919050565b60006020820190508181036000830152614309816142cd565b9050919050565b7f4e487b7100000000000000000000000000000000000000000000000000000000600052601260045260246000fd5b600061434a82612f71565b915061435583612f71565b92508261436557614364614310565b5b828204905092915050565b600061437b82612f71565b915061438683612f71565b92508261439657614395614310565b5b828206905092915050565b600060808201905081810360008301526143bb8187612f16565b905081810360208301526143cf8186612f16565b905081810360408301526143e38185612f16565b90506143f26060830184613347565b95945050505050565b600061440682612f71565b915061441183612f71565b9250817fffffffffffffffffffffffffffffffffffffffffffffffffffffffffffffffff048311821515161561444a57614449613fb5565b5b828202905092915050565b7f45524337323155524953746f726167653a2055524920736574206f66206e6f6e60008201527f6578697374656e7420746f6b656e000000000000000000000000000000000000602082015250565b60006144b1602e83612ec1565b91506144bc82614455565b604082019050919050565b600060208201905081810360008301526144e0816144a4565b9050919050565b600060608201905081810360008301526145018186612f16565b90506145106020830185613347565b81810360408301526145228184612f16565b9050949350505050565b600081519050919050565b600082825260208201905092915050565b60006145538261452c565b61455d8185614537565b935061456d818560208601612ed2565b61457681612f05565b840191505092915050565b60006080820190506145966000830187613006565b6145a36020830186613006565b6145b06040830185613347565b81810360608301526145c28184614548565b905095945050505050565b6000815190506145dc81612e27565b92915050565b6000602082840312156145f8576145f7612df1565b5b6000614606848285016145cd565b91505092915050565b7f4552433732313a206d696e7420746f20746865207a65726f2061646472657373600082015250565b6000614645602083612ec1565b91506146508261460f565b602082019050919050565b6000602082019050818103600083015261467481614638565b9050919050565b7f4552433732313a20746f6b656e20616c7265616479206d696e74656400000000600082015250565b60006146b1601c83612ec1565b91506146bc8261467b565b602082019050919050565b600060208201905081810360008301526146e0816146a4565b905091905056fe0a2d2d2d2d2d2d2d2d2d2d2d2d2d2d2d2d2d2d2d2d2d2d2d2d2d2d2d2d2d2d2d2d2d2d2d2d2d2d2d2d2d2d2d2d2d2d2d2d2d2d2d2d2d2d2d2d5265676973746572696e672025732e2573206f6e2074686520636f6e7472616374207769746820746f6b656e49442025642d2d2d2d2d2d2d2d2d2d2d2d2d2d2d2d2d2d2d2d2d2d2d2d2d2d2d2d2d2d2d2d2d2d2d2d2d2d2d2d2d2d2d2d2d2d2d2d2d2d2d2d2d2d2d2d0a4142434445464748494a4b4c4d4e4f505152535455565758595a6162636465666768696a6b6c6d6e6f707172737475767778797a303132333435363738392b2fa2646970667358221220709a0e64c197c1e7a4ea3bab0dafc871fb3136748f9aebd60c26865ead0693fc64736f6c634300080900333c73766720786d6c6e733d22687474703a2f2f7777772e77332e6f72672f323030302f737667222077696474683d2232373022206865696768743d22323730222066696c6c3d226e6f6e65223e3c706174682066696c6c3d2275726c282342292220643d224d302030683237307632373048307a222f3e3c646566733e3c66696c7465722069643d22412220636f6c6f722d696e746572706f6c6174696f6e2d66696c746572733d2273524742222066696c746572556e6974733d227573657253706163654f6e55736522206865696768743d22323730222077696474683d22323730223e3c666544726f70536861646f772064783d2230222064793d22312220737464446576696174696f6e3d22322220666c6f6f642d6f7061636974793d222e323235222077696474683d223230302522206865696768743d2232303025222f3e3c2f66696c7465723e3c2f646566733e3c7061746820643d224d37322e3836332034322e393439632d2e3636382d2e3338372d312e3432362d2e35392d322e3139372d2e3539732d312e3532392e3230342d322e3139372e35396c2d31302e30383120362e3033322d362e383520332e3933342d31302e30383120362e303332632d2e3636382e3338372d312e3432362e35392d322e3139372e3539732d312e3532392d2e3230342d322e3139372d2e35396c2d382e3031332d342e37323161342e353220342e35322030203020312d312e3538392d312e363136632d2e3338342d2e3636352d2e3539342d312e3431382d2e3630382d322e313837762d392e3331632d2e3031332d2e3737352e3138352d312e3533382e3537322d322e32303861342e323520342e323520302030203120312e3632352d312e3539356c372e3838342d342e3539632e3636382d2e33383720312e3432362d2e353920322e3139372d2e353973312e3532392e32303420322e3139372e35396c372e38383420342e353961342e353220342e353220302030203120312e35383920312e363136632e3338342e3636352e35393420312e3431382e36303820322e31383776362e3033326c362e38352d342e303635762d362e303332632e3031332d2e3737352d2e3138352d312e3533382d2e3537322d322e32303861342e323520342e32352030203020302d312e3632352d312e3539354c34312e3435362032342e3539632d2e3636382d2e3338372d312e3432362d2e35392d322e3139372d2e3539732d312e3532392e3230342d322e3139372e35396c2d31342e38363420382e36353561342e323520342e32352030203020302d312e36323520312e353935632d2e3338372e36372d2e35383520312e3433342d2e35373220322e3230387631372e343431632d2e3031332e3737352e31383520312e3533382e35373220322e32303861342e323520342e323520302030203020312e36323520312e3539356c31342e38363420382e363535632e3636382e33383720312e3432362e353920322e3139372e353973312e3532392d2e32303420322e3139372d2e35396c31302e3038312d352e39303120362e38352d342e3036352031302e3038312d352e393031632e3636382d2e33383720312e3432362d2e353920322e3139372d2e353973312e3532392e32303420322e3139372e35396c372e38383420342e353961342e353220342e353220302030203120312e35383920312e363136632e3338342e3636352e35393420312e3431382e36303820322e31383776392e333131632e3031332e3737352d2e31383520312e3533382d2e35373220322e32303861342e323520342e32352030203020312d312e36323520312e3539356c2d372e38383420342e373231632d2e3636382e3338372d312e3432362e35392d322e3139372e3539732d312e3532392d2e3230342d322e3139372d2e35396c2d372e3838342d342e353961342e353220342e35322030203020312d312e3538392d312e363136632d2e3338352d2e3636352d2e3539342d312e3431382d2e3630382d322e313837762d362e3033326c2d362e383520342e30363576362e303332632d2e3031332e3737352e31383520312e3533382e35373220322e32303861342e323520342e323520302030203020312e36323520312e3539356c31342e38363420382e363535632e3636382e33383720312e3432362e353920322e3139372e353973312e3532392d2e32303420322e3139372d2e35396c31342e3836342d382e363535632e3635372d2e33393420312e3230342d2e393520312e3538392d312e363136732e3539342d312e3431382e3630392d322e3138375635352e353338632e3031332d2e3737352d2e3138352d312e3533382d2e3537322d322e32303861342e323520342e32352030203020302d312e3632352d312e3539356c2d31342e3939332d382e3738367a222066696c6c3d2223666666222f3e3c646566733e3c6c696e6561724772616469656e742069643d2242222078313d2230222079313d2230222078323d22323730222079323d2232373022206772616469656e74556e6974733d227573657253706163654f6e557365223e3c73746f702073746f702d636f6c6f723d2223636235656565222f3e3c73746f70206f66667365743d2231222073746f702d636f6c6f723d2223306364376534222073746f702d6f7061636974793d222e3939222f3e3c2f6c696e6561724772616469656e743e3c2f646566733e3c7465787420783d2233322e352220793d223233312220666f6e742d73697a653d223237222066696c6c3d2223666666222066696c7465723d2275726c282341292220666f6e742d66616d696c793d22506c7573204a616b617274612053616e732c44656a6156752053616e732c4e6f746f20436f6c6f7220456d6f6a692c4170706c6520436f6c6f7220456d6f6a692c73616e732d73657269662220666f6e742d7765696768743d22626f6c64223e",
  "linkReferences": {},
  "deployedLinkReferences": {}
}